:020000040000FA
:04000000803116280D
:100008007E1480312E008C1E0A280B281428823179
:1000180040228031023020008C0680312B20803134
:100028007E10090080311828F001F101F201F30176
:10003800F401F501F60120308400003085003230EB
:1000480082312E2280317E1020008231342A200015
:100058000C182F2830283D280130FC007C08F607B2
:10006800F40104307602031C3A283B28D728F5010E
:10007800D7280130FC007C08F5077408031D4528C3
:100088004628D72804307502031C4B284C284E28D4
:10009800F401F40A7408031952285328D72872085F
:1000A800031D5728582869283D307602031C5D280F
:1000B8005E28D62846307602031863286428D62896
:1000C800F201F20AF301D628D62810307602031C72
:1000D8006E286F2880282330760203187428752824
:1000E80080287308483E860087018101810A013013
:1000F800FC007C08F307D6283230760203188528DE
:1001080086288C287308483E8600870181017B2851
:100118004C307602031C91289228D3285A30760254
:10012800031897289828D32803307306031D9D28A1
:100138009E28D3284808031DA228A328C5284908B3
:10014800031DA728A828B8284A08031DAC28AD28ED
:10015800B4288131FF218031823146228031D6286E
:1001680081319D218031B0284A08031DBC28BD2853
:10017800C1288131B8218031B0288131672180318F
:10018800B0284908031DC928CA2868284A08031D39
:10019800CE28CF286828813182218031B028F60105
:1001A800F201F301F60182311422803108002000A7
:1001B800131493141315931526008E01FF30250090
:1001C8008D00FF3026008D00C0308C00FF3091007C
:1001D800C0309000FF309500C0309400FF30990087
:1001E800C0309C002E009A1090100130250090001D
:1001F8000E128E120E138E172E00901C042905293C
:100208000029200013109310131193110C303E0095
:10021800A0000B30A1000930A2000A30A3009F30D3
:1002280026008E009F3092009F3096009F309A00E3
:10023800200091138C170800FA003229770826004D
:100248008D0048297708260091004829770826005C
:100258009500482977082600990048297A08F80067
:10026800F9017908003A03193A2948297808013A26
:1002780003192229033A03192629013A03192A29BD
:10028800073A03192E294829080020008C018D01FE
:100298008E019601970198013E00B801C301CE0175
:1002A80020009101920193018B170B178131EA21EC
:1002B80081318131D32181318231272281318031CD
:1002C800DB2081310800FF30FB007B08F700043099
:1002D800813120218131C830FB007B08F7000130D3
:1002E800813120218131F701033081312021813191
:1002F800F70102308131202181310800C830FB002C
:100308007B08F7000430813120218131FA30FB006D
:100318007B08F7000130813120218131F70103305A
:10032800813120218131F701023081312021813151
:100338000800FF30FB007B08F700043081312021E2
:100348008131FA30FB007B08F70001308131202130
:100358008131F7010330813120218131F7010230E9
:100368008131202181310800F701043081312021B9
:100378008131F7010130813120218131FF30FB00CB
:100388007B08F7000330813120218131FF30FB00E9
:100398007B08F700023081312021813108003E00BE
:1003A8004316C31620001216921610303E009D0008
:1003B8000C303D00CB002E00191222009E161E1292
:1003C8009D179F111E15CF309B0008002E00961612
:1003D80020009E171E121E109E101E119E111F1027
:1003E8009F141F119F119F121F179F131F128231F5
:1003F8003A2281310800F70104308131202181310E
:10040800F7010130813120218131F7010330813139
:1004180020218131F701023081312021813108000A
:100428000130F0070030F13D273071021130031917
:100438007002031C202A212A262A8131FF218231B9
:10044800F001F1010800200011143E003810F501F8
:10045800F6010800640080010131890B2F2A00345D
:10046800813149218231372A80311628C73020004E
:100478009D002E008C120800C73020009D002E0021
:0A0488008C120800F001F1010800D9
:020000040001F9
:0A000E008F3FFF37BF3FFE2FFF3F7B
:00000001FF
