:020000040000FA
:08000000803102288731EA2F4C
:10086E0020008E010800200093110800193407346F
:10087E003B3420000C138E0108006400800101310E
:10088E00890B452C0034230011142E000F1C4C2C08
:10089E000F100800230011152E000F1C532C0F10E3
:1008AE000800843137248431003087316C270800EA
:1008BE00F000700823008C002E000F1C632C0F100C
:1008CE000800843137248431033085318725843103
:1008DE00023087316C27080084313724843102308E
:1008EE00853187258431013087316C2708008431AA
:1008FE0037248431043085318725843104308731A3
:10090E006C270800F11F08007009F2007109F3004E
:10091E00F20A0319F30A7208F0007308F1000800D6
:10092E008431372484310330853187258431023078
:10093E00853187258431033087316C270800F1001B
:10094E0071080139F000F00EF00D23001108700649
:10095E00DF397006910011162E000F1CB32C0F10EC
:10096E000800F300230091152E000F1CBB2C0F1056
:10097E0023000C08F2007208F4000F107308843183
:10098E00A6247408080020008E151530F000C6301D
:10099E00890BCF2CF00BCF2C003220008E112A3079
:1009AE00F0008E30890BD92CF00BD92C08002000CA
:1009BE008E151530F000C630890BE32CF00BE32CAE
:1009CE00003220008E113F30F0005530890BED2C97
:1009DE00F00BED2C0000080020008E151530F000F5
:1009EE00C630890BF82CF00BF82C003220008E113B
:1009FE001530F000C630890B022DF00B022D00329F
:100A0E00080020008E151530F000C630890B0D2D14
:100A1E00F00B0D2D003220008E115430F0001C30E2
:100A2E00890B172DF00B172D003220008E150800A4
:100A3E003E004316C31620001216921610303E00CA
:100A4E009D000C303D00CB002E00191222009E1688
:100A5E001E129D179F111E15CF309B0008002000FF
:100A6E00921412153E00C414441509303D00C50001
:100A7E000A30C60014303E00990015309A0023004B
:100A8E00901610109010101190154F308D00080018
:100A9E008531AC2585310530FD000F30FC00F1307D
:100AAE00890B572DFC0B572DFD0B572D0000863152
:100ABE0082268531863111268531403020008C0604
:100ACE00522DF40084314A248531743584315F24EB
:100ADE008531F501720875020318842D75087107AA
:100AEE00F300730886008701010884315F24853185
:100AFE000130F3007308F507712D8431512408007D
:100B0E00F200952D20000C17080020000E1408008E
:100B1E0020008E14080020000E1508007208F00048
:100B2E00F1017108003A03199D2DAB2D7008013AA1
:100B3E000319892D033A03198C2D013A03198F2DB0
:100B4E00073A0319922DAB2D080020008C018D0160
:100B5E008E019601970198013E00B801C301CE01A6
:100B6E0020009101920193018B170B1785311F25E0
:100B7E00853104308531872585318531362585319E
:100B8E0003308531872585318631F5268531023052
:100B9E0085318725853184313A248531013085317F
:100BAE0087258531843140240800F8007508031D1F
:100BBE00E22D0030080084314A2485310314780D6B
:100BCE0084315F248531F9017508790203180D2EE1
:100BDE007508FF3EF600FF3003180030F700790865
:100BEE0076067704031DFD2D0130FE2D0030843175
:100BFE00B8248531F60079082E3E860087017608E6
:100C0E0081000130F6007608F907EB2D843151246E
:100C1E002E30080020002D08F000F101F01BF1032A
:100C2E008431892486317008F50075082000AA00E9
:100C3E002C08F000F101F01BF10384318924863178
:100C4E007008F50075082000A9002B08F000F101CE
:100C5E00F01BF1038431892486317008F500750884
:100C6E002000A8002908803AF5002A08803AF502EB
:100C7E000318542E2808803AF5002A08803AF50207
:100C8E000318542E2D08803A7F3E031C512E8431BA
:100C9E00732408008431682408002A08803AF5007D
:100CAE002808803AF50203186F2E2908803AF500BD
:100CBE002808803AF50203186F2E2B08803A7F3EE3
:100CCE00031C6C2E84319724080084317E24080086
:100CDE002A08803AF5002908803AF5020318080020
:100CEE002808803AF5002908803AF5020318080012
:100CFE0084315824080020004908C2004208FA0036
:100D0E007A30C2004208F100F201F20A68308531F1
:100D1E00682586310E302000C2004208F50068308A
:100D2E008531DC2586312000C3004308FB007B089B
:100D3E00860087010108C2004208AD007B088600CC
:100D4E008701423FAC007B0886008701443FAB0021
:100D5E007B08093E860087010108C200C3017B089B
:100D6E00083E860087010108C400C5014408C5007D
:100D7E00C40142084404A40043084504A5007B08AE
:100D8E000B3E860087010108C200C3017B080A3EA4
:100D9E00860087010108C400C5014408C500C401CE
:100DAE0042084404A20043084504A3007B080D3EFC
:100DBE00860087010108C200C3017B080C3E860035
:100DCE0087010108C400C5014408C500C4014208DA
:100DDE004404A00043084504A10008000530F700B4
:100DEE000F30F600F130890BFA2EF60BFA2EF70BB8
:100DFE00FA2E000020004808F9004708F800783065
:100E0E00F6007608F1000230F7007708F20068303D
:100E1E008531682586316B30F6007608F800F901C9
:100E2E00F90A7830F6007608F1000230F7007708FC
:100E3E00F20068308531682586311A30F600760862
:100E4E00F800F9017830F6007608F1000230F7006C
:100E5E007708F20068308531682586311C30F6003F
:100E6E007608F800F9017830F6007608F1000230C5
:100E7E00F7007708F20068308531682586311B301F
:100E8E00F6007608F8001830F6007608F90078308B
:100E9E00F6007608F1000230F7007708F2006830AD
:100EAE008531682586313830F6007608F800F9016C
:100EBE00F90A7830F6007608F1000230F70077086C
:100ECE00F2006830853168250800F300F401CA2F5E
:100EDE008431DE2487318431CA2487318431CA2497
:100EEE008731BC2F8431DE2487318431CA24873187
:100EFE008431CA2487318431F3248731BF2F843162
:100F0E00DE2487318431CA248731B92F8431DE241F
:100F1E0087318431CA2487318431F3248731843177
:100F2E00F3248731BF2F8431DE2487318431F324BB
:100F3E0087318431CA248731BC2F8431DE24873136
:100F4E008431F32487318431CA2487318431F324E8
:100F5E0087318531082587318431DE24873184310C
:100F6E00F32487318431F32487318431CA248731C5
:100F7E008531082587310130F1007108F4070330FF
:100F8E007402031808007308F100F2017208003AA7
:100F9E000319D22FC22F7108003A03196F2F013A8D
:100FAE000319792F033A0319862F013A03198D2F4E
:100FBE00073A03199A2F013A0319A42F033A03197A
:100FCE00B32FC22FC22F84313D248731C700843105
:100FDE003E248731C80084313F248731C900203038
:100FEE008400003085002230843144242000853175
:020FFE004F2D75
:020000040001F9
:0A000E008F3FFF37BF3FFE2FFF3F7B
:00000001FF
